{
  "_format": "hh-sol-artifact-1",
  "contractName": "Contest",
  "sourceName": "contracts/Contest.sol",
  "abi": [
    {
      "inputs": [
        {
          "internalType": "address",
          "name": "prize",
          "type": "address"
        },
        {
          "internalType": "address",
          "name": "reward",
          "type": "address"
        },
        {
          "internalType": "uint256",
          "name": "first",
          "type": "uint256"
        },
        {
          "internalType": "uint256",
          "name": "second",
          "type": "uint256"
        },
        {
          "internalType": "uint256",
          "name": "third",
          "type": "uint256"
        },
        {
          "internalType": "uint256",
          "name": "firstRatio",
          "type": "uint256"
        },
        {
          "internalType": "uint256",
          "name": "secondRatio",
          "type": "uint256"
        },
        {
          "internalType": "uint256",
          "name": "thirdRatio",
          "type": "uint256"
        }
      ],
      "stateMutability": "payable",
      "type": "constructor"
    },
    {
      "anonymous": false,
      "inputs": [
        {
          "indexed": false,
          "internalType": "address",
          "name": "proposer",
          "type": "address"
        },
        {
          "indexed": false,
          "internalType": "uint256",
          "name": "proposalId",
          "type": "uint256"
        }
      ],
      "name": "ProposalCreated",
      "type": "event"
    },
    {
      "anonymous": false,
      "inputs": [
        {
          "indexed": false,
          "internalType": "bytes",
          "name": "data",
          "type": "bytes"
        }
      ],
      "name": "setConfiture",
      "type": "event"
    },
    {
      "inputs": [],
      "name": "_1stPrize",
      "outputs": [
        {
          "internalType": "uint256",
          "name": "",
          "type": "uint256"
        }
      ],
      "stateMutability": "view",
      "type": "function"
    },
    {
      "inputs": [],
      "name": "_1stPrizeRatio",
      "outputs": [
        {
          "internalType": "uint256",
          "name": "",
          "type": "uint256"
        }
      ],
      "stateMutability": "view",
      "type": "function"
    },
    {
      "inputs": [],
      "name": "_2ndPrize",
      "outputs": [
        {
          "internalType": "uint256",
          "name": "",
          "type": "uint256"
        }
      ],
      "stateMutability": "view",
      "type": "function"
    },
    {
      "inputs": [],
      "name": "_2ndPrizeRatio",
      "outputs": [
        {
          "internalType": "uint256",
          "name": "",
          "type": "uint256"
        }
      ],
      "stateMutability": "view",
      "type": "function"
    },
    {
      "inputs": [],
      "name": "_3rdPrize",
      "outputs": [
        {
          "internalType": "uint256",
          "name": "",
          "type": "uint256"
        }
      ],
      "stateMutability": "view",
      "type": "function"
    },
    {
      "inputs": [],
      "name": "_3rdPrizeRatio",
      "outputs": [
        {
          "internalType": "uint256",
          "name": "",
          "type": "uint256"
        }
      ],
      "stateMutability": "view",
      "type": "function"
    },
    {
      "inputs": [],
      "name": "_currentSnapshotId",
      "outputs": [
        {
          "internalType": "uint256",
          "name": "",
          "type": "uint256"
        }
      ],
      "stateMutability": "view",
      "type": "function"
    },
    {
      "inputs": [],
      "name": "_prize",
      "outputs": [
        {
          "internalType": "address",
          "name": "",
          "type": "address"
        }
      ],
      "stateMutability": "view",
      "type": "function"
    },
    {
      "inputs": [
        {
          "internalType": "uint256",
          "name": "",
          "type": "uint256"
        }
      ],
      "name": "_proposals",
      "outputs": [
        {
          "internalType": "address",
          "name": "proposer",
          "type": "address"
        },
        {
          "internalType": "bool",
          "name": "executed",
          "type": "bool"
        },
        {
          "internalType": "bool",
          "name": "canceled",
          "type": "bool"
        },
        {
          "internalType": "uint256",
          "name": "points",
          "type": "uint256"
        },
        {
          "internalType": "uint256",
          "name": "balance",
          "type": "uint256"
        }
      ],
      "stateMutability": "view",
      "type": "function"
    },
    {
      "inputs": [
        {
          "internalType": "uint256",
          "name": "snapshotId",
          "type": "uint256"
        }
      ],
      "name": "execute",
      "outputs": [],
      "stateMutability": "nonpayable",
      "type": "function"
    },
    {
      "inputs": [
        {
          "internalType": "address",
          "name": "proposer",
          "type": "address"
        },
        {
          "internalType": "bytes32",
          "name": "descriptionHash",
          "type": "bytes32"
        }
      ],
      "name": "hashProposal",
      "outputs": [
        {
          "internalType": "uint256",
          "name": "",
          "type": "uint256"
        }
      ],
      "stateMutability": "nonpayable",
      "type": "function"
    },
    {
      "inputs": [
        {
          "internalType": "string",
          "name": "description",
          "type": "string"
        }
      ],
      "name": "propose",
      "outputs": [
        {
          "internalType": "uint256",
          "name": "",
          "type": "uint256"
        }
      ],
      "stateMutability": "nonpayable",
      "type": "function"
    },
    {
      "inputs": [
        {
          "internalType": "address",
          "name": "contractAddress",
          "type": "address"
        }
      ],
      "name": "setIERC1155",
      "outputs": [],
      "stateMutability": "nonpayable",
      "type": "function"
    },
    {
      "inputs": [
        {
          "internalType": "address",
          "name": "contractAddress",
          "type": "address"
        }
      ],
      "name": "setIERC20",
      "outputs": [],
      "stateMutability": "nonpayable",
      "type": "function"
    },
    {
      "inputs": [
        {
          "internalType": "address",
          "name": "contractAddress",
          "type": "address"
        }
      ],
      "name": "setRewardAddress",
      "outputs": [],
      "stateMutability": "nonpayable",
      "type": "function"
    },
    {
      "inputs": [
        {
          "internalType": "uint256",
          "name": "amount",
          "type": "uint256"
        }
      ],
      "name": "stakeReward",
      "outputs": [],
      "stateMutability": "nonpayable",
      "type": "function"
    },
    {
      "inputs": [
        {
          "internalType": "uint256",
          "name": "proposalId",
          "type": "uint256"
        },
        {
          "internalType": "uint256",
          "name": "balanceProposal",
          "type": "uint256"
        },
        {
          "internalType": "uint256",
          "name": "balanceAll",
          "type": "uint256"
        }
      ],
      "name": "vote",
      "outputs": [],
      "stateMutability": "nonpayable",
      "type": "function"
    },
    {
      "inputs": [
        {
          "internalType": "uint256",
          "name": "proposalId",
          "type": "uint256"
        }
      ],
      "name": "withdraw",
      "outputs": [],
      "stateMutability": "nonpayable",
      "type": "function"
    }
  ],
  "bytecode": "0x608060405260405162001aad38038062001aad8339818101604052810190620000299190620002c6565b876000806101000a81548173ffffffffffffffffffffffffffffffffffffffff021916908373ffffffffffffffffffffffffffffffffffffffff16021790555085600181905550846002819055508360038190555082600481905550816005819055508060068190555060006009819055506040518060a001604052803373ffffffffffffffffffffffffffffffffffffffff168152602001600015158152602001600015158152602001600081526020016000815250600f600080815260200190815260200160002060008201518160000160006101000a81548173ffffffffffffffffffffffffffffffffffffffff021916908373ffffffffffffffffffffffffffffffffffffffff16021790555060208201518160000160146101000a81548160ff02191690831515021790555060408201518160000160156101000a81548160ff021916908315150217905550606082015181600101556080820151816002015590505033600c60006101000a81548173ffffffffffffffffffffffffffffffffffffffff021916908373ffffffffffffffffffffffffffffffffffffffff16021790555086600e60006101000a81548173ffffffffffffffffffffffffffffffffffffffff021916908373ffffffffffffffffffffffffffffffffffffffff16021790555050505050505050506200038f565b600080fd5b600073ffffffffffffffffffffffffffffffffffffffff82169050919050565b6000620002538262000226565b9050919050565b620002658162000246565b81146200027157600080fd5b50565b60008151905062000285816200025a565b92915050565b6000819050919050565b620002a0816200028b565b8114620002ac57600080fd5b50565b600081519050620002c08162000295565b92915050565b600080600080600080600080610100898b031215620002ea57620002e962000221565b5b6000620002fa8b828c0162000274565b98505060206200030d8b828c0162000274565b9750506040620003208b828c01620002af565b9650506060620003338b828c01620002af565b9550506080620003468b828c01620002af565b94505060a0620003598b828c01620002af565b93505060c06200036c8b828c01620002af565b92505060e06200037f8b828c01620002af565b9150509295985092959890939650565b61170e806200039f6000396000f3fe608060405234801561001057600080fd5b50600436106101165760003560e01c806392c97470116100a2578063cf73c30811610071578063cf73c308146102d3578063dc72bb97146102f1578063e2bd05bd1461030d578063f35524f514610329578063fe0d94c11461034757610116565b806392c9747014610237578063aa98df3914610255578063aaffba5414610285578063c5dccc1a146102a357610116565b80635a5953f8116100e95780635a5953f8146101a55780635e00e679146101c357806363077284146101df578063664b86b8146101fd5780638a6655d61461021b57610116565b80630191b4f51461011b5780630a494840146101395780632e1a7d4d1461016d578063550bcd0d14610189575b600080fd5b610123610363565b6040516101309190610f8b565b60405180910390f35b610153600480360381019061014e9190610fe6565b610369565b60405161016495949392919061106f565b60405180910390f35b61018760048036038101906101829190610fe6565b6103d9565b005b6101a3600480360381019061019e91906110ee565b61078d565b005b6101ad6108a6565b6040516101ba919061111b565b60405180910390f35b6101dd60048036038101906101d891906110ee565b6108ca565b005b6101e76109a2565b6040516101f49190610f8b565b60405180910390f35b6102056109a8565b6040516102129190610f8b565b60405180910390f35b61023560048036038101906102309190611136565b6109ae565b005b61023f610b1d565b60405161024c9190610f8b565b60405180910390f35b61026f600480360381019061026a91906112cf565b610b23565b60405161027c9190610f8b565b60405180910390f35b61028d610c77565b60405161029a9190610f8b565b60405180910390f35b6102bd60048036038101906102b8919061134e565b610c7d565b6040516102ca9190610f8b565b60405180910390f35b6102db610cb3565b6040516102e89190610f8b565b60405180910390f35b61030b60048036038101906103069190610fe6565b610cb9565b005b610327600480360381019061032291906110ee565b610e30565b005b610331610f08565b60405161033e9190610f8b565b60405180910390f35b610361600480360381019061035c9190610fe6565b610f0e565b005b60065481565b600f6020528060005260406000206000915090508060000160009054906101000a900473ffffffffffffffffffffffffffffffffffffffff16908060000160149054906101000a900460ff16908060000160159054906101000a900460ff16908060010154908060020154905085565b6000600a60009054906101000a900473ffffffffffffffffffffffffffffffffffffffff1673ffffffffffffffffffffffffffffffffffffffff1663981b24d06009546040518263ffffffff1660e01b81526004016104389190610f8b565b602060405180830381865afa158015610455573d6000803e3d6000fd5b505050506040513d601f19601f8201168201806040525081019061047991906113a3565b905060008060006009540361048d57600080fd5b600f600085815260200190815260200160002060000160149054906101000a900460ff16156104bb57600080fd5b3373ffffffffffffffffffffffffffffffffffffffff16600f600086815260200190815260200160002060000160009054906101000a900473ffffffffffffffffffffffffffffffffffffffff1673ffffffffffffffffffffffffffffffffffffffff161461052957600080fd5b600a60009054906101000a900473ffffffffffffffffffffffffffffffffffffffff1673ffffffffffffffffffffffffffffffffffffffff16634ee2cd7e600f600087815260200190815260200160002060000160009054906101000a900473ffffffffffffffffffffffffffffffffffffffff166009546040518363ffffffff1660e01b81526004016105be9291906113d0565b602060405180830381865afa1580156105db573d6000803e3d6000fd5b505050506040513d601f19601f820116820180604052508101906105ff91906113a3565b915060018383600f6000808152602001908152602001600020600201546106269190611428565b6106309190611499565b600f60008781526020019081526020016000206002015461065191906114ca565b61065b91906114fe565b9050600e60009054906101000a900473ffffffffffffffffffffffffffffffffffffffff1673ffffffffffffffffffffffffffffffffffffffff166323b872dd600d60009054906101000a900473ffffffffffffffffffffffffffffffffffffffff16600f600088815260200190815260200160002060000160009054906101000a900473ffffffffffffffffffffffffffffffffffffffff16846040518463ffffffff1660e01b815260040161071493929190611532565b6020604051808303816000875af1158015610733573d6000803e3d6000fd5b505050506040513d601f19601f820116820180604052508101906107579190611595565b506001600f600086815260200190815260200160002060000160146101000a81548160ff02191690831515021790555050505050565b3373ffffffffffffffffffffffffffffffffffffffff16600c60009054906101000a900473ffffffffffffffffffffffffffffffffffffffff1673ffffffffffffffffffffffffffffffffffffffff16146107e757600080fd5b80600a60006101000a81548173ffffffffffffffffffffffffffffffffffffffff021916908373ffffffffffffffffffffffffffffffffffffffff16021790555080600d60006101000a81548173ffffffffffffffffffffffffffffffffffffffff021916908373ffffffffffffffffffffffffffffffffffffffff1602179055507ffd694cca99b717c91c441f9b6a84b6006960da3e67b66583b2374e4cfba41f8d60003660405161089b929190611600565b60405180910390a150565b60008054906101000a900473ffffffffffffffffffffffffffffffffffffffff1681565b3373ffffffffffffffffffffffffffffffffffffffff16600c60009054906101000a900473ffffffffffffffffffffffffffffffffffffffff1673ffffffffffffffffffffffffffffffffffffffff161461092457600080fd5b80600e60006101000a81548173ffffffffffffffffffffffffffffffffffffffff021916908373ffffffffffffffffffffffffffffffffffffffff1602179055507ffd694cca99b717c91c441f9b6a84b6006960da3e67b66583b2374e4cfba41f8d600036604051610997929190611600565b60405180910390a150565b60025481565b60045481565b6000600f600085815260200190815260200160002060000160009054906101000a900473ffffffffffffffffffffffffffffffffffffffff169050600a60009054906101000a900473ffffffffffffffffffffffffffffffffffffffff1673ffffffffffffffffffffffffffffffffffffffff166323b872dd3383633b9aca006040518463ffffffff1660e01b8152600401610a4c93929190611669565b6020604051808303816000875af1158015610a6b573d6000803e3d6000fd5b505050506040513d601f19601f82011682018060405250810190610a8f9190611595565b506000600f600086815260200190815260200160002090506000816002015490508481610abc91906114ca565b905080600f60008881526020019081526020016000206002018190555083600f600080815260200190815260200160002060020154610afb91906114ca565b600f600080815260200190815260200160002060020181905550505050505050565b60035481565b6000803390506000610b3c828580519060200120610c7d565b90506040518060a001604052808373ffffffffffffffffffffffffffffffffffffffff168152602001600015158152602001600015158152602001600081526020016000815250600f600083815260200190815260200160002060008201518160000160006101000a81548173ffffffffffffffffffffffffffffffffffffffff021916908373ffffffffffffffffffffffffffffffffffffffff16021790555060208201518160000160146101000a81548160ff02191690831515021790555060408201518160000160156101000a81548160ff02191690831515021790555060608201518160010155608082015181600201559050507fe28da1d80dec4ece82645bd52ae6a4118887a7cb56436b4024affa3b5d4463c98282604051610c659291906113d0565b60405180910390a18092505050919050565b60015481565b60008282604051602001610c929291906116af565b6040516020818303038152906040528051906020012060001c905092915050565b60055481565b3373ffffffffffffffffffffffffffffffffffffffff16600c60009054906101000a900473ffffffffffffffffffffffffffffffffffffffff1673ffffffffffffffffffffffffffffffffffffffff1614610d1357600080fd5b600a60009054906101000a900473ffffffffffffffffffffffffffffffffffffffff1673ffffffffffffffffffffffffffffffffffffffff166323b872dd33600d60009054906101000a900473ffffffffffffffffffffffffffffffffffffffff16846040518463ffffffff1660e01b8152600401610d9493929190611532565b6020604051808303816000875af1158015610db3573d6000803e3d6000fd5b505050506040513d601f19601f82011682018060405250810190610dd79190611595565b5080600f6000808152602001908152602001600020600201819055507ffd694cca99b717c91c441f9b6a84b6006960da3e67b66583b2374e4cfba41f8d600036604051610e25929190611600565b60405180910390a150565b3373ffffffffffffffffffffffffffffffffffffffff16600c60009054906101000a900473ffffffffffffffffffffffffffffffffffffffff1673ffffffffffffffffffffffffffffffffffffffff1614610e8a57600080fd5b80600b60006101000a81548173ffffffffffffffffffffffffffffffffffffffff021916908373ffffffffffffffffffffffffffffffffffffffff1602179055507ffd694cca99b717c91c441f9b6a84b6006960da3e67b66583b2374e4cfba41f8d600036604051610efd929190611600565b60405180910390a150565b60095481565b3373ffffffffffffffffffffffffffffffffffffffff16600c60009054906101000a900473ffffffffffffffffffffffffffffffffffffffff1673ffffffffffffffffffffffffffffffffffffffff1614610f6857600080fd5b8060098190555050565b6000819050919050565b610f8581610f72565b82525050565b6000602082019050610fa06000830184610f7c565b92915050565b6000604051905090565b600080fd5b600080fd5b610fc381610f72565b8114610fce57600080fd5b50565b600081359050610fe081610fba565b92915050565b600060208284031215610ffc57610ffb610fb0565b5b600061100a84828501610fd1565b91505092915050565b600073ffffffffffffffffffffffffffffffffffffffff82169050919050565b600061103e82611013565b9050919050565b61104e81611033565b82525050565b60008115159050919050565b61106981611054565b82525050565b600060a0820190506110846000830188611045565b6110916020830187611060565b61109e6040830186611060565b6110ab6060830185610f7c565b6110b86080830184610f7c565b9695505050505050565b6110cb81611033565b81146110d657600080fd5b50565b6000813590506110e8816110c2565b92915050565b60006020828403121561110457611103610fb0565b5b6000611112848285016110d9565b91505092915050565b60006020820190506111306000830184611045565b92915050565b60008060006060848603121561114f5761114e610fb0565b5b600061115d86828701610fd1565b935050602061116e86828701610fd1565b925050604061117f86828701610fd1565b9150509250925092565b600080fd5b600080fd5b6000601f19601f8301169050919050565b7f4e487b7100000000000000000000000000000000000000000000000000000000600052604160045260246000fd5b6111dc82611193565b810181811067ffffffffffffffff821117156111fb576111fa6111a4565b5b80604052505050565b600061120e610fa6565b905061121a82826111d3565b919050565b600067ffffffffffffffff82111561123a576112396111a4565b5b61124382611193565b9050602081019050919050565b82818337600083830152505050565b600061127261126d8461121f565b611204565b90508281526020810184848401111561128e5761128d61118e565b5b611299848285611250565b509392505050565b600082601f8301126112b6576112b5611189565b5b81356112c684826020860161125f565b91505092915050565b6000602082840312156112e5576112e4610fb0565b5b600082013567ffffffffffffffff81111561130357611302610fb5565b5b61130f848285016112a1565b91505092915050565b6000819050919050565b61132b81611318565b811461133657600080fd5b50565b60008135905061134881611322565b92915050565b6000806040838503121561136557611364610fb0565b5b6000611373858286016110d9565b925050602061138485828601611339565b9150509250929050565b60008151905061139d81610fba565b92915050565b6000602082840312156113b9576113b8610fb0565b5b60006113c78482850161138e565b91505092915050565b60006040820190506113e56000830185611045565b6113f26020830184610f7c565b9392505050565b7f4e487b7100000000000000000000000000000000000000000000000000000000600052601160045260246000fd5b600061143382610f72565b915061143e83610f72565b925082820261144c81610f72565b91508282048414831517611463576114626113f9565b5b5092915050565b7f4e487b7100000000000000000000000000000000000000000000000000000000600052601260045260246000fd5b60006114a482610f72565b91506114af83610f72565b9250826114bf576114be61146a565b5b828204905092915050565b60006114d582610f72565b91506114e083610f72565b92508282019050808211156114f8576114f76113f9565b5b92915050565b600061150982610f72565b915061151483610f72565b925082820390508181111561152c5761152b6113f9565b5b92915050565b60006060820190506115476000830186611045565b6115546020830185611045565b6115616040830184610f7c565b949350505050565b61157281611054565b811461157d57600080fd5b50565b60008151905061158f81611569565b92915050565b6000602082840312156115ab576115aa610fb0565b5b60006115b984828501611580565b91505092915050565b600082825260208201905092915050565b60006115df83856115c2565b93506115ec838584611250565b6115f583611193565b840190509392505050565b6000602082019050818103600083015261161b8184866115d3565b90509392505050565b6000819050919050565b6000819050919050565b600061165361164e61164984611624565b61162e565b610f72565b9050919050565b61166381611638565b82525050565b600060608201905061167e6000830186611045565b61168b6020830185611045565b611698604083018461165a565b949350505050565b6116a981611318565b82525050565b60006040820190506116c46000830185611045565b6116d160208301846116a0565b939250505056fea26469706673582212203ef298d98152bc047af22f064a16c37be678cc328b831c3c6605e88fd806a0ed64736f6c63430008120033",
  "linkReferences": {},
  "deployedLinkReferences": {}
}