{
  "_format": "hh-sol-artifact-1",
  "contractName": "Contest",
  "sourceName": "contracts/Contest.sol",
  "abi": [
    {
      "inputs": [
        {
          "internalType": "address",
          "name": "prize",
          "type": "address"
        },
        {
          "internalType": "uint256",
          "name": "first",
          "type": "uint256"
        },
        {
          "internalType": "uint256",
          "name": "second",
          "type": "uint256"
        },
        {
          "internalType": "uint256",
          "name": "third",
          "type": "uint256"
        },
        {
          "internalType": "uint256",
          "name": "firstRatio",
          "type": "uint256"
        },
        {
          "internalType": "uint256",
          "name": "secondRatio",
          "type": "uint256"
        },
        {
          "internalType": "uint256",
          "name": "thirdRatio",
          "type": "uint256"
        }
      ],
      "stateMutability": "payable",
      "type": "constructor"
    },
    {
      "anonymous": false,
      "inputs": [
        {
          "indexed": false,
          "internalType": "address",
          "name": "proposer",
          "type": "address"
        },
        {
          "indexed": false,
          "internalType": "uint256",
          "name": "proposalId",
          "type": "uint256"
        }
      ],
      "name": "ProposalCreated",
      "type": "event"
    },
    {
      "anonymous": false,
      "inputs": [
        {
          "indexed": false,
          "internalType": "bytes",
          "name": "data",
          "type": "bytes"
        }
      ],
      "name": "setConfiture",
      "type": "event"
    },
    {
      "inputs": [],
      "name": "_1stPrize",
      "outputs": [
        {
          "internalType": "uint256",
          "name": "",
          "type": "uint256"
        }
      ],
      "stateMutability": "view",
      "type": "function"
    },
    {
      "inputs": [],
      "name": "_1stPrizeRatio",
      "outputs": [
        {
          "internalType": "uint256",
          "name": "",
          "type": "uint256"
        }
      ],
      "stateMutability": "view",
      "type": "function"
    },
    {
      "inputs": [],
      "name": "_2ndPrize",
      "outputs": [
        {
          "internalType": "uint256",
          "name": "",
          "type": "uint256"
        }
      ],
      "stateMutability": "view",
      "type": "function"
    },
    {
      "inputs": [],
      "name": "_2ndPrizeRatio",
      "outputs": [
        {
          "internalType": "uint256",
          "name": "",
          "type": "uint256"
        }
      ],
      "stateMutability": "view",
      "type": "function"
    },
    {
      "inputs": [],
      "name": "_3rdPrize",
      "outputs": [
        {
          "internalType": "uint256",
          "name": "",
          "type": "uint256"
        }
      ],
      "stateMutability": "view",
      "type": "function"
    },
    {
      "inputs": [],
      "name": "_3rdPrizeRatio",
      "outputs": [
        {
          "internalType": "uint256",
          "name": "",
          "type": "uint256"
        }
      ],
      "stateMutability": "view",
      "type": "function"
    },
    {
      "inputs": [],
      "name": "_currentSnapshotId",
      "outputs": [
        {
          "internalType": "uint256",
          "name": "",
          "type": "uint256"
        }
      ],
      "stateMutability": "view",
      "type": "function"
    },
    {
      "inputs": [],
      "name": "_prize",
      "outputs": [
        {
          "internalType": "address",
          "name": "",
          "type": "address"
        }
      ],
      "stateMutability": "view",
      "type": "function"
    },
    {
      "inputs": [
        {
          "internalType": "uint256",
          "name": "",
          "type": "uint256"
        }
      ],
      "name": "_proposals",
      "outputs": [
        {
          "internalType": "address",
          "name": "proposer",
          "type": "address"
        },
        {
          "internalType": "string",
          "name": "discription",
          "type": "string"
        },
        {
          "internalType": "bool",
          "name": "executed",
          "type": "bool"
        },
        {
          "internalType": "bool",
          "name": "canceled",
          "type": "bool"
        },
        {
          "internalType": "uint256",
          "name": "points",
          "type": "uint256"
        },
        {
          "internalType": "uint256",
          "name": "balance",
          "type": "uint256"
        }
      ],
      "stateMutability": "view",
      "type": "function"
    },
    {
      "inputs": [],
      "name": "execute",
      "outputs": [],
      "stateMutability": "nonpayable",
      "type": "function"
    },
    {
      "inputs": [
        {
          "internalType": "address",
          "name": "proposer",
          "type": "address"
        },
        {
          "internalType": "bytes32",
          "name": "descriptionHash",
          "type": "bytes32"
        }
      ],
      "name": "hashProposal",
      "outputs": [
        {
          "internalType": "uint256",
          "name": "",
          "type": "uint256"
        }
      ],
      "stateMutability": "nonpayable",
      "type": "function"
    },
    {
      "inputs": [
        {
          "internalType": "string",
          "name": "description",
          "type": "string"
        }
      ],
      "name": "propose",
      "outputs": [
        {
          "internalType": "uint256",
          "name": "",
          "type": "uint256"
        }
      ],
      "stateMutability": "nonpayable",
      "type": "function"
    },
    {
      "inputs": [
        {
          "internalType": "address",
          "name": "contractAddress",
          "type": "address"
        }
      ],
      "name": "setIERC1155",
      "outputs": [],
      "stateMutability": "nonpayable",
      "type": "function"
    },
    {
      "inputs": [],
      "name": "stakeReward",
      "outputs": [],
      "stateMutability": "payable",
      "type": "function"
    },
    {
      "inputs": [
        {
          "internalType": "uint256",
          "name": "proposalId",
          "type": "uint256"
        },
        {
          "internalType": "uint256",
          "name": "balanceProposal",
          "type": "uint256"
        },
        {
          "internalType": "uint256",
          "name": "balanceAll",
          "type": "uint256"
        }
      ],
      "name": "vote",
      "outputs": [],
      "stateMutability": "payable",
      "type": "function"
    },
    {
      "inputs": [
        {
          "internalType": "uint256",
          "name": "proposalId",
          "type": "uint256"
        }
      ],
      "name": "withdraw",
      "outputs": [],
      "stateMutability": "nonpayable",
      "type": "function"
    }
  ],
  "bytecode": "0x60806040526000600e5560405162001c3238038062001c3283398181016040528101906200002e9190620002b6565b866000806101000a81548173ffffffffffffffffffffffffffffffffffffffff021916908373ffffffffffffffffffffffffffffffffffffffff16021790555085600181905550846002819055508360038190555082600481905550816005819055508060068190555060006009819055506040518060c001604052803373ffffffffffffffffffffffffffffffffffffffff168152602001604051806020016040528060008152508152602001600015158152602001600015158152602001600081526020016000815250600f600080815260200190815260200160002060008201518160000160006101000a81548173ffffffffffffffffffffffffffffffffffffffff021916908373ffffffffffffffffffffffffffffffffffffffff16021790555060208201518160010190816200016b9190620005d9565b5060408201518160020160006101000a81548160ff02191690831515021790555060608201518160020160016101000a81548160ff0219169083151502179055506080820151816003015560a0820151816004015590505033600b60006101000a81548173ffffffffffffffffffffffffffffffffffffffff021916908373ffffffffffffffffffffffffffffffffffffffff16021790555050505050505050620006c0565b600080fd5b600073ffffffffffffffffffffffffffffffffffffffff82169050919050565b6000620002438262000216565b9050919050565b620002558162000236565b81146200026157600080fd5b50565b60008151905062000275816200024a565b92915050565b6000819050919050565b62000290816200027b565b81146200029c57600080fd5b50565b600081519050620002b08162000285565b92915050565b600080600080600080600060e0888a031215620002d857620002d762000211565b5b6000620002e88a828b0162000264565b9750506020620002fb8a828b016200029f565b96505060406200030e8a828b016200029f565b9550506060620003218a828b016200029f565b9450506080620003348a828b016200029f565b93505060a0620003478a828b016200029f565b92505060c06200035a8a828b016200029f565b91505092959891949750929550565b600081519050919050565b7f4e487b7100000000000000000000000000000000000000000000000000000000600052604160045260246000fd5b7f4e487b7100000000000000000000000000000000000000000000000000000000600052602260045260246000fd5b60006002820490506001821680620003eb57607f821691505b602082108103620004015762000400620003a3565b5b50919050565b60008190508160005260206000209050919050565b60006020601f8301049050919050565b600082821b905092915050565b6000600883026200046b7fffffffffffffffffffffffffffffffffffffffffffffffffffffffffffffffff826200042c565b6200047786836200042c565b95508019841693508086168417925050509392505050565b6000819050919050565b6000620004ba620004b4620004ae846200027b565b6200048f565b6200027b565b9050919050565b6000819050919050565b620004d68362000499565b620004ee620004e582620004c1565b84845462000439565b825550505050565b600090565b62000505620004f6565b62000512818484620004cb565b505050565b5b818110156200053a576200052e600082620004fb565b60018101905062000518565b5050565b601f8211156200058957620005538162000407565b6200055e846200041c565b810160208510156200056e578190505b620005866200057d856200041c565b83018262000517565b50505b505050565b600082821c905092915050565b6000620005ae600019846008026200058e565b1980831691505092915050565b6000620005c983836200059b565b9150826002028217905092915050565b620005e48262000369565b67ffffffffffffffff8111156200060057620005ff62000374565b5b6200060c8254620003d2565b620006198282856200053e565b600060209050601f8311600181146200065157600084156200063c578287015190505b620006488582620005bb565b865550620006b8565b601f198416620006618662000407565b60005b828110156200068b5784890151825560018201915060208501945060208101905062000664565b86831015620006ab5784890151620006a7601f8916826200059b565b8355505b6001600288020188555050505b505050505050565b61156280620006d06000396000f3fe6080604052600436106100f35760003560e01c80638a6655d61161008a578063c5dccc1a11610059578063c5dccc1a146102df578063cf73c3081461031c578063e2bd05bd14610347578063f35524f514610370576100f3565b80638a6655d61461023057806392c974701461024c578063aa98df3914610277578063aaffba54146102b4576100f3565b80635a5953f8116100c65780635a5953f81461019857806361461954146101c357806363077284146101da578063664b86b814610205576100f3565b80630191b4f5146100f85780630a4948401461012357806314f47dcc146101655780632e1a7d4d1461016f575b600080fd5b34801561010457600080fd5b5061010d61039b565b60405161011a9190610bbb565b60405180910390f35b34801561012f57600080fd5b5061014a60048036038101906101459190610c16565b6103a1565b60405161015c96959493929190610d2f565b60405180910390f35b61016d61049f565b005b34801561017b57600080fd5b5061019660048036038101906101919190610c16565b610550565b005b3480156101a457600080fd5b506101ad610729565b6040516101ba9190610d97565b60405180910390f35b3480156101cf57600080fd5b506101d861074d565b005b3480156101e657600080fd5b506101ef6107c6565b6040516101fc9190610bbb565b60405180910390f35b34801561021157600080fd5b5061021a6107cc565b6040516102279190610bbb565b60405180910390f35b61024a60048036038101906102459190610db2565b6107d2565b005b34801561025857600080fd5b506102616108e3565b60405161026e9190610bbb565b60405180910390f35b34801561028357600080fd5b5061029e60048036038101906102999190610f3a565b6108e9565b6040516102ab9190610bbb565b60405180910390f35b3480156102c057600080fd5b506102c9610a82565b6040516102d69190610bbb565b60405180910390f35b3480156102eb57600080fd5b5061030660048036038101906103019190610fe5565b610a88565b6040516103139190610bbb565b60405180910390f35b34801561032857600080fd5b50610331610abe565b60405161033e9190610bbb565b60405180910390f35b34801561035357600080fd5b5061036e60048036038101906103699190611025565b610ac4565b005b34801561037c57600080fd5b50610385610b9c565b6040516103929190610bbb565b60405180910390f35b60065481565b600f6020528060005260406000206000915090508060000160009054906101000a900473ffffffffffffffffffffffffffffffffffffffff16908060010180546103ea90611081565b80601f016020809104026020016040519081016040528092919081815260200182805461041690611081565b80156104635780601f1061043857610100808354040283529160200191610463565b820191906000526020600020905b81548152906001019060200180831161044657829003601f168201915b5050505050908060020160009054906101000a900460ff16908060020160019054906101000a900460ff16908060030154908060040154905086565b3373ffffffffffffffffffffffffffffffffffffffff16600b60009054906101000a900473ffffffffffffffffffffffffffffffffffffffff1673ffffffffffffffffffffffffffffffffffffffff16146104f957600080fd5b34600f6000808152602001908152602001600020600401819055507ffd694cca99b717c91c441f9b6a84b6006960da3e67b66583b2374e4cfba41f8d6000366040516105469291906110f0565b60405180910390a1565b60008060006009540361056257600080fd5b600f600084815260200190815260200160002060020160009054906101000a900460ff161561059057600080fd5b3373ffffffffffffffffffffffffffffffffffffffff16600f600085815260200190815260200160002060000160009054906101000a900473ffffffffffffffffffffffffffffffffffffffff1673ffffffffffffffffffffffffffffffffffffffff16146105fe57600080fd5b6001600f600080815260200190815260200160002060030154600f600086815260200190815260200160002060030154600e5461063b9190611143565b61064591906111b4565b600f60008681526020019081526020016000206004015461066691906111e5565b6106709190611219565b90506000600f600085815260200190815260200160002060000160009054906101000a900473ffffffffffffffffffffffffffffffffffffffff1690508073ffffffffffffffffffffffffffffffffffffffff166108fc839081150290604051600060405180830381858888f193505050501580156106f3573d6000803e3d6000fd5b506001600f600086815260200190815260200160002060020160006101000a81548160ff02191690831515021790555050505050565b60008054906101000a900473ffffffffffffffffffffffffffffffffffffffff1681565b3373ffffffffffffffffffffffffffffffffffffffff16600b60009054906101000a900473ffffffffffffffffffffffffffffffffffffffff1673ffffffffffffffffffffffffffffffffffffffff16146107a757600080fd5b600f600080815260200190815260200160002060040154600e81905550565b60025481565b60045481565b6000600f600085815260200190815260200160002090506000816003015490506001816107ff91906111e5565b600f6000878152602001908152602001600020600301819055506001600f60008081526020019081526020016000206003015461083c91906111e5565b600f60008081526020019081526020016000206003018190555034848461086391906111e5565b1061086d57600080fd5b600082600401549050848161088291906111e5565b905080600f60008881526020019081526020016000206004018190555083600f6000808152602001908152602001600020600401546108c191906111e5565b600f600080815260200190815260200160002060040181905550505050505050565b60035481565b6000803390506000610902828580519060200120610a88565b90506040518060c001604052808373ffffffffffffffffffffffffffffffffffffffff168152602001858152602001600015158152602001600015158152602001600081526020016000815250600f600083815260200190815260200160002060008201518160000160006101000a81548173ffffffffffffffffffffffffffffffffffffffff021916908373ffffffffffffffffffffffffffffffffffffffff16021790555060208201518160010190816109be91906113f9565b5060408201518160020160006101000a81548160ff02191690831515021790555060608201518160020160016101000a81548160ff0219169083151502179055506080820151816003015560a08201518160040155905050600d8190806001815401808255809150506001900390600052602060002001600090919091909150557fe28da1d80dec4ece82645bd52ae6a4118887a7cb56436b4024affa3b5d4463c98282604051610a709291906114cb565b60405180910390a18092505050919050565b60015481565b60008282604051602001610a9d929190611503565b6040516020818303038152906040528051906020012060001c905092915050565b60055481565b3373ffffffffffffffffffffffffffffffffffffffff16600b60009054906101000a900473ffffffffffffffffffffffffffffffffffffffff1673ffffffffffffffffffffffffffffffffffffffff1614610b1e57600080fd5b80600a60006101000a81548173ffffffffffffffffffffffffffffffffffffffff021916908373ffffffffffffffffffffffffffffffffffffffff1602179055507ffd694cca99b717c91c441f9b6a84b6006960da3e67b66583b2374e4cfba41f8d600036604051610b919291906110f0565b60405180910390a150565b60095481565b6000819050919050565b610bb581610ba2565b82525050565b6000602082019050610bd06000830184610bac565b92915050565b6000604051905090565b600080fd5b600080fd5b610bf381610ba2565b8114610bfe57600080fd5b50565b600081359050610c1081610bea565b92915050565b600060208284031215610c2c57610c2b610be0565b5b6000610c3a84828501610c01565b91505092915050565b600073ffffffffffffffffffffffffffffffffffffffff82169050919050565b6000610c6e82610c43565b9050919050565b610c7e81610c63565b82525050565b600081519050919050565b600082825260208201905092915050565b60005b83811015610cbe578082015181840152602081019050610ca3565b60008484015250505050565b6000601f19601f8301169050919050565b6000610ce682610c84565b610cf08185610c8f565b9350610d00818560208601610ca0565b610d0981610cca565b840191505092915050565b60008115159050919050565b610d2981610d14565b82525050565b600060c082019050610d446000830189610c75565b8181036020830152610d568188610cdb565b9050610d656040830187610d20565b610d726060830186610d20565b610d7f6080830185610bac565b610d8c60a0830184610bac565b979650505050505050565b6000602082019050610dac6000830184610c75565b92915050565b600080600060608486031215610dcb57610dca610be0565b5b6000610dd986828701610c01565b9350506020610dea86828701610c01565b9250506040610dfb86828701610c01565b9150509250925092565b600080fd5b600080fd5b7f4e487b7100000000000000000000000000000000000000000000000000000000600052604160045260246000fd5b610e4782610cca565b810181811067ffffffffffffffff82111715610e6657610e65610e0f565b5b80604052505050565b6000610e79610bd6565b9050610e858282610e3e565b919050565b600067ffffffffffffffff821115610ea557610ea4610e0f565b5b610eae82610cca565b9050602081019050919050565b82818337600083830152505050565b6000610edd610ed884610e8a565b610e6f565b905082815260208101848484011115610ef957610ef8610e0a565b5b610f04848285610ebb565b509392505050565b600082601f830112610f2157610f20610e05565b5b8135610f31848260208601610eca565b91505092915050565b600060208284031215610f5057610f4f610be0565b5b600082013567ffffffffffffffff811115610f6e57610f6d610be5565b5b610f7a84828501610f0c565b91505092915050565b610f8c81610c63565b8114610f9757600080fd5b50565b600081359050610fa981610f83565b92915050565b6000819050919050565b610fc281610faf565b8114610fcd57600080fd5b50565b600081359050610fdf81610fb9565b92915050565b60008060408385031215610ffc57610ffb610be0565b5b600061100a85828601610f9a565b925050602061101b85828601610fd0565b9150509250929050565b60006020828403121561103b5761103a610be0565b5b600061104984828501610f9a565b91505092915050565b7f4e487b7100000000000000000000000000000000000000000000000000000000600052602260045260246000fd5b6000600282049050600182168061109957607f821691505b6020821081036110ac576110ab611052565b5b50919050565b600082825260208201905092915050565b60006110cf83856110b2565b93506110dc838584610ebb565b6110e583610cca565b840190509392505050565b6000602082019050818103600083015261110b8184866110c3565b90509392505050565b7f4e487b7100000000000000000000000000000000000000000000000000000000600052601160045260246000fd5b600061114e82610ba2565b915061115983610ba2565b925082820261116781610ba2565b9150828204841483151761117e5761117d611114565b5b5092915050565b7f4e487b7100000000000000000000000000000000000000000000000000000000600052601260045260246000fd5b60006111bf82610ba2565b91506111ca83610ba2565b9250826111da576111d9611185565b5b828204905092915050565b60006111f082610ba2565b91506111fb83610ba2565b925082820190508082111561121357611212611114565b5b92915050565b600061122482610ba2565b915061122f83610ba2565b925082820390508181111561124757611246611114565b5b92915050565b60008190508160005260206000209050919050565b60006020601f8301049050919050565b600082821b905092915050565b6000600883026112af7fffffffffffffffffffffffffffffffffffffffffffffffffffffffffffffffff82611272565b6112b98683611272565b95508019841693508086168417925050509392505050565b6000819050919050565b60006112f66112f16112ec84610ba2565b6112d1565b610ba2565b9050919050565b6000819050919050565b611310836112db565b61132461131c826112fd565b84845461127f565b825550505050565b600090565b61133961132c565b611344818484611307565b505050565b5b818110156113685761135d600082611331565b60018101905061134a565b5050565b601f8211156113ad5761137e8161124d565b61138784611262565b81016020851015611396578190505b6113aa6113a285611262565b830182611349565b50505b505050565b600082821c905092915050565b60006113d0600019846008026113b2565b1980831691505092915050565b60006113e983836113bf565b9150826002028217905092915050565b61140282610c84565b67ffffffffffffffff81111561141b5761141a610e0f565b5b6114258254611081565b61143082828561136c565b600060209050601f8311600181146114635760008415611451578287015190505b61145b85826113dd565b8655506114c3565b601f1984166114718661124d565b60005b8281101561149957848901518255600182019150602085019450602081019050611474565b868310156114b657848901516114b2601f8916826113bf565b8355505b6001600288020188555050505b505050505050565b60006040820190506114e06000830185610c75565b6114ed6020830184610bac565b9392505050565b6114fd81610faf565b82525050565b60006040820190506115186000830185610c75565b61152560208301846114f4565b939250505056fea2646970667358221220b7b58bc8faf843436940f8367cbe237066f254f89082b369c5f6fa13a8594ca964736f6c63430008120033",
  "linkReferences": {},
  "deployedLinkReferences": {}
}