{
  "_format": "hh-sol-artifact-1",
  "contractName": "Contest",
  "sourceName": "contracts/Contest.sol",
  "abi": [
    {
      "inputs": [
        {
          "internalType": "address",
          "name": "prize",
          "type": "address"
        },
        {
          "internalType": "address",
          "name": "reward",
          "type": "address"
        },
        {
          "internalType": "uint256",
          "name": "first",
          "type": "uint256"
        },
        {
          "internalType": "uint256",
          "name": "second",
          "type": "uint256"
        },
        {
          "internalType": "uint256",
          "name": "third",
          "type": "uint256"
        },
        {
          "internalType": "uint256",
          "name": "firstRatio",
          "type": "uint256"
        },
        {
          "internalType": "uint256",
          "name": "secondRatio",
          "type": "uint256"
        },
        {
          "internalType": "uint256",
          "name": "thirdRatio",
          "type": "uint256"
        }
      ],
      "stateMutability": "payable",
      "type": "constructor"
    },
    {
      "anonymous": false,
      "inputs": [
        {
          "indexed": false,
          "internalType": "address",
          "name": "proposer",
          "type": "address"
        },
        {
          "indexed": false,
          "internalType": "uint256",
          "name": "proposalId",
          "type": "uint256"
        }
      ],
      "name": "ProposalCreated",
      "type": "event"
    },
    {
      "anonymous": false,
      "inputs": [
        {
          "indexed": false,
          "internalType": "bytes",
          "name": "data",
          "type": "bytes"
        }
      ],
      "name": "setConfiture",
      "type": "event"
    },
    {
      "inputs": [],
      "name": "_1stPrize",
      "outputs": [
        {
          "internalType": "uint256",
          "name": "",
          "type": "uint256"
        }
      ],
      "stateMutability": "view",
      "type": "function"
    },
    {
      "inputs": [],
      "name": "_1stPrizeRatio",
      "outputs": [
        {
          "internalType": "uint256",
          "name": "",
          "type": "uint256"
        }
      ],
      "stateMutability": "view",
      "type": "function"
    },
    {
      "inputs": [],
      "name": "_2ndPrize",
      "outputs": [
        {
          "internalType": "uint256",
          "name": "",
          "type": "uint256"
        }
      ],
      "stateMutability": "view",
      "type": "function"
    },
    {
      "inputs": [],
      "name": "_2ndPrizeRatio",
      "outputs": [
        {
          "internalType": "uint256",
          "name": "",
          "type": "uint256"
        }
      ],
      "stateMutability": "view",
      "type": "function"
    },
    {
      "inputs": [],
      "name": "_3rdPrize",
      "outputs": [
        {
          "internalType": "uint256",
          "name": "",
          "type": "uint256"
        }
      ],
      "stateMutability": "view",
      "type": "function"
    },
    {
      "inputs": [],
      "name": "_3rdPrizeRatio",
      "outputs": [
        {
          "internalType": "uint256",
          "name": "",
          "type": "uint256"
        }
      ],
      "stateMutability": "view",
      "type": "function"
    },
    {
      "inputs": [],
      "name": "_currentSnapshotId",
      "outputs": [
        {
          "internalType": "uint256",
          "name": "",
          "type": "uint256"
        }
      ],
      "stateMutability": "view",
      "type": "function"
    },
    {
      "inputs": [],
      "name": "_prize",
      "outputs": [
        {
          "internalType": "address",
          "name": "",
          "type": "address"
        }
      ],
      "stateMutability": "view",
      "type": "function"
    },
    {
      "inputs": [
        {
          "internalType": "uint256",
          "name": "",
          "type": "uint256"
        }
      ],
      "name": "_proposals",
      "outputs": [
        {
          "internalType": "address",
          "name": "proposer",
          "type": "address"
        },
        {
          "internalType": "string",
          "name": "discription",
          "type": "string"
        },
        {
          "internalType": "bool",
          "name": "executed",
          "type": "bool"
        },
        {
          "internalType": "bool",
          "name": "canceled",
          "type": "bool"
        },
        {
          "internalType": "uint256",
          "name": "points",
          "type": "uint256"
        },
        {
          "internalType": "uint256",
          "name": "balance",
          "type": "uint256"
        }
      ],
      "stateMutability": "view",
      "type": "function"
    },
    {
      "inputs": [
        {
          "internalType": "uint256",
          "name": "snapshotId",
          "type": "uint256"
        }
      ],
      "name": "execute",
      "outputs": [],
      "stateMutability": "nonpayable",
      "type": "function"
    },
    {
      "inputs": [
        {
          "internalType": "address",
          "name": "proposer",
          "type": "address"
        },
        {
          "internalType": "bytes32",
          "name": "descriptionHash",
          "type": "bytes32"
        }
      ],
      "name": "hashProposal",
      "outputs": [
        {
          "internalType": "uint256",
          "name": "",
          "type": "uint256"
        }
      ],
      "stateMutability": "nonpayable",
      "type": "function"
    },
    {
      "inputs": [
        {
          "internalType": "string",
          "name": "description",
          "type": "string"
        }
      ],
      "name": "propose",
      "outputs": [
        {
          "internalType": "uint256",
          "name": "",
          "type": "uint256"
        }
      ],
      "stateMutability": "nonpayable",
      "type": "function"
    },
    {
      "inputs": [
        {
          "internalType": "address",
          "name": "contractAddress",
          "type": "address"
        }
      ],
      "name": "setIERC1155",
      "outputs": [],
      "stateMutability": "nonpayable",
      "type": "function"
    },
    {
      "inputs": [
        {
          "internalType": "address",
          "name": "contractAddress",
          "type": "address"
        }
      ],
      "name": "setIERC20",
      "outputs": [],
      "stateMutability": "nonpayable",
      "type": "function"
    },
    {
      "inputs": [
        {
          "internalType": "address",
          "name": "contractAddress",
          "type": "address"
        }
      ],
      "name": "setRewardAddress",
      "outputs": [],
      "stateMutability": "nonpayable",
      "type": "function"
    },
    {
      "inputs": [
        {
          "internalType": "uint256",
          "name": "amount",
          "type": "uint256"
        }
      ],
      "name": "stakeReward",
      "outputs": [],
      "stateMutability": "nonpayable",
      "type": "function"
    },
    {
      "inputs": [
        {
          "internalType": "uint256",
          "name": "proposalId",
          "type": "uint256"
        },
        {
          "internalType": "uint256",
          "name": "balanceProposal",
          "type": "uint256"
        },
        {
          "internalType": "uint256",
          "name": "balanceAll",
          "type": "uint256"
        }
      ],
      "name": "vote",
      "outputs": [],
      "stateMutability": "nonpayable",
      "type": "function"
    },
    {
      "inputs": [
        {
          "internalType": "uint256",
          "name": "proposalId",
          "type": "uint256"
        }
      ],
      "name": "withdraw",
      "outputs": [],
      "stateMutability": "nonpayable",
      "type": "function"
    }
  ],
  "bytecode": "0x60806040526040516200226d3803806200226d8339818101604052810190620000299190620002f3565b876000806101000a81548173ffffffffffffffffffffffffffffffffffffffff021916908373ffffffffffffffffffffffffffffffffffffffff16021790555085600181905550846002819055508360038190555082600481905550816005819055508060068190555060006009819055506040518060c001604052803373ffffffffffffffffffffffffffffffffffffffff1681526020016040518060200160405280600081525081526020016000151581526020016000151581526020016000815260200160008152506010600080815260200190815260200160002060008201518160000160006101000a81548173ffffffffffffffffffffffffffffffffffffffff021916908373ffffffffffffffffffffffffffffffffffffffff16021790555060208201518160010190816200016691906200062c565b5060408201518160020160006101000a81548160ff02191690831515021790555060608201518160020160016101000a81548160ff0219169083151502179055506080820151816003015560a0820151816004015590505033600c60006101000a81548173ffffffffffffffffffffffffffffffffffffffff021916908373ffffffffffffffffffffffffffffffffffffffff16021790555086600e60006101000a81548173ffffffffffffffffffffffffffffffffffffffff021916908373ffffffffffffffffffffffffffffffffffffffff160217905550505050505050505062000713565b600080fd5b600073ffffffffffffffffffffffffffffffffffffffff82169050919050565b6000620002808262000253565b9050919050565b620002928162000273565b81146200029e57600080fd5b50565b600081519050620002b28162000287565b92915050565b6000819050919050565b620002cd81620002b8565b8114620002d957600080fd5b50565b600081519050620002ed81620002c2565b92915050565b600080600080600080600080610100898b0312156200031757620003166200024e565b5b6000620003278b828c01620002a1565b98505060206200033a8b828c01620002a1565b97505060406200034d8b828c01620002dc565b9650506060620003608b828c01620002dc565b9550506080620003738b828c01620002dc565b94505060a0620003868b828c01620002dc565b93505060c0620003998b828c01620002dc565b92505060e0620003ac8b828c01620002dc565b9150509295985092959890939650565b600081519050919050565b7f4e487b7100000000000000000000000000000000000000000000000000000000600052604160045260246000fd5b7f4e487b7100000000000000000000000000000000000000000000000000000000600052602260045260246000fd5b600060028204905060018216806200043e57607f821691505b602082108103620004545762000453620003f6565b5b50919050565b60008190508160005260206000209050919050565b60006020601f8301049050919050565b600082821b905092915050565b600060088302620004be7fffffffffffffffffffffffffffffffffffffffffffffffffffffffffffffffff826200047f565b620004ca86836200047f565b95508019841693508086168417925050509392505050565b6000819050919050565b60006200050d620005076200050184620002b8565b620004e2565b620002b8565b9050919050565b6000819050919050565b6200052983620004ec565b62000541620005388262000514565b8484546200048c565b825550505050565b600090565b6200055862000549565b620005658184846200051e565b505050565b5b818110156200058d57620005816000826200054e565b6001810190506200056b565b5050565b601f821115620005dc57620005a6816200045a565b620005b1846200046f565b81016020851015620005c1578190505b620005d9620005d0856200046f565b8301826200056a565b50505b505050565b600082821c905092915050565b60006200060160001984600802620005e1565b1980831691505092915050565b60006200061c8383620005ee565b9150826002028217905092915050565b6200063782620003bc565b67ffffffffffffffff811115620006535762000652620003c7565b5b6200065f825462000425565b6200066c82828562000591565b600060209050601f831160018114620006a457600084156200068f578287015190505b6200069b85826200060e565b8655506200070b565b601f198416620006b4866200045a565b60005b82811015620006de57848901518255600182019150602085019450602081019050620006b7565b86831015620006fe5784890151620006fa601f891682620005ee565b8355505b6001600288020188555050505b505050505050565b611b4a80620007236000396000f3fe608060405234801561001057600080fd5b50600436106101165760003560e01c806392c97470116100a2578063cf73c30811610071578063cf73c308146102d4578063dc72bb97146102f2578063e2bd05bd1461030e578063f35524f51461032a578063fe0d94c11461034857610116565b806392c9747014610238578063aa98df3914610256578063aaffba5414610286578063c5dccc1a146102a457610116565b80635a5953f8116100e95780635a5953f8146101a65780635e00e679146101c457806363077284146101e0578063664b86b8146101fe5780638a6655d61461021c57610116565b80630191b4f51461011b5780630a494840146101395780632e1a7d4d1461016e578063550bcd0d1461018a575b600080fd5b610123610364565b604051610130919061105f565b60405180910390f35b610153600480360381019061014e91906110ba565b61036a565b604051610165969594939291906111d3565b60405180910390f35b610188600480360381019061018391906110ba565b610468565b005b6101a4600480360381019061019f9190611267565b61081c565b005b6101ae610935565b6040516101bb9190611294565b60405180910390f35b6101de60048036038101906101d99190611267565b610959565b005b6101e8610a31565b6040516101f5919061105f565b60405180910390f35b610206610a37565b604051610213919061105f565b60405180910390f35b610236600480360381019061023191906112af565b610a3d565b005b610240610bac565b60405161024d919061105f565b60405180910390f35b610270600480360381019061026b9190611437565b610bb2565b60405161027d919061105f565b60405180910390f35b61028e610d4b565b60405161029b919061105f565b60405180910390f35b6102be60048036038101906102b991906114b6565b610d51565b6040516102cb919061105f565b60405180910390f35b6102dc610d87565b6040516102e9919061105f565b60405180910390f35b61030c600480360381019061030791906110ba565b610d8d565b005b61032860048036038101906103239190611267565b610f04565b005b610332610fdc565b60405161033f919061105f565b60405180910390f35b610362600480360381019061035d91906110ba565b610fe2565b005b60065481565b60106020528060005260406000206000915090508060000160009054906101000a900473ffffffffffffffffffffffffffffffffffffffff16908060010180546103b390611525565b80601f01602080910402602001604051908101604052809291908181526020018280546103df90611525565b801561042c5780601f106104015761010080835404028352916020019161042c565b820191906000526020600020905b81548152906001019060200180831161040f57829003601f168201915b5050505050908060020160009054906101000a900460ff16908060020160019054906101000a900460ff16908060030154908060040154905086565b6000600a60009054906101000a900473ffffffffffffffffffffffffffffffffffffffff1673ffffffffffffffffffffffffffffffffffffffff1663981b24d06009546040518263ffffffff1660e01b81526004016104c7919061105f565b602060405180830381865afa1580156104e4573d6000803e3d6000fd5b505050506040513d601f19601f82011682018060405250810190610508919061156b565b905060008060006009540361051c57600080fd5b6010600085815260200190815260200160002060020160009054906101000a900460ff161561054a57600080fd5b3373ffffffffffffffffffffffffffffffffffffffff166010600086815260200190815260200160002060000160009054906101000a900473ffffffffffffffffffffffffffffffffffffffff1673ffffffffffffffffffffffffffffffffffffffff16146105b857600080fd5b600a60009054906101000a900473ffffffffffffffffffffffffffffffffffffffff1673ffffffffffffffffffffffffffffffffffffffff16634ee2cd7e6010600087815260200190815260200160002060000160009054906101000a900473ffffffffffffffffffffffffffffffffffffffff166009546040518363ffffffff1660e01b815260040161064d929190611598565b602060405180830381865afa15801561066a573d6000803e3d6000fd5b505050506040513d601f19601f8201168201806040525081019061068e919061156b565b91506001838360106000808152602001908152602001600020600401546106b591906115f0565b6106bf9190611661565b60106000878152602001908152602001600020600401546106e09190611692565b6106ea91906116c6565b9050600e60009054906101000a900473ffffffffffffffffffffffffffffffffffffffff1673ffffffffffffffffffffffffffffffffffffffff166323b872dd600d60009054906101000a900473ffffffffffffffffffffffffffffffffffffffff166010600088815260200190815260200160002060000160009054906101000a900473ffffffffffffffffffffffffffffffffffffffff16846040518463ffffffff1660e01b81526004016107a3939291906116fa565b6020604051808303816000875af11580156107c2573d6000803e3d6000fd5b505050506040513d601f19601f820116820180604052508101906107e6919061175d565b5060016010600086815260200190815260200160002060020160006101000a81548160ff02191690831515021790555050505050565b3373ffffffffffffffffffffffffffffffffffffffff16600c60009054906101000a900473ffffffffffffffffffffffffffffffffffffffff1673ffffffffffffffffffffffffffffffffffffffff161461087657600080fd5b80600a60006101000a81548173ffffffffffffffffffffffffffffffffffffffff021916908373ffffffffffffffffffffffffffffffffffffffff16021790555080600d60006101000a81548173ffffffffffffffffffffffffffffffffffffffff021916908373ffffffffffffffffffffffffffffffffffffffff1602179055507ffd694cca99b717c91c441f9b6a84b6006960da3e67b66583b2374e4cfba41f8d60003660405161092a9291906117c8565b60405180910390a150565b60008054906101000a900473ffffffffffffffffffffffffffffffffffffffff1681565b3373ffffffffffffffffffffffffffffffffffffffff16600c60009054906101000a900473ffffffffffffffffffffffffffffffffffffffff1673ffffffffffffffffffffffffffffffffffffffff16146109b357600080fd5b80600e60006101000a81548173ffffffffffffffffffffffffffffffffffffffff021916908373ffffffffffffffffffffffffffffffffffffffff1602179055507ffd694cca99b717c91c441f9b6a84b6006960da3e67b66583b2374e4cfba41f8d600036604051610a269291906117c8565b60405180910390a150565b60025481565b60045481565b60006010600085815260200190815260200160002060000160009054906101000a900473ffffffffffffffffffffffffffffffffffffffff169050600a60009054906101000a900473ffffffffffffffffffffffffffffffffffffffff1673ffffffffffffffffffffffffffffffffffffffff166323b872dd3383633b9aca006040518463ffffffff1660e01b8152600401610adb93929190611831565b6020604051808303816000875af1158015610afa573d6000803e3d6000fd5b505050506040513d601f19601f82011682018060405250810190610b1e919061175d565b5060006010600086815260200190815260200160002090506000816004015490508481610b4b9190611692565b9050806010600088815260200190815260200160002060040181905550836010600080815260200190815260200160002060040154610b8a9190611692565b6010600080815260200190815260200160002060040181905550505050505050565b60035481565b6000803390506000610bcb828580519060200120610d51565b90506040518060c001604052808373ffffffffffffffffffffffffffffffffffffffff1681526020018581526020016000151581526020016000151581526020016000815260200160008152506010600083815260200190815260200160002060008201518160000160006101000a81548173ffffffffffffffffffffffffffffffffffffffff021916908373ffffffffffffffffffffffffffffffffffffffff1602179055506020820151816001019081610c879190611a0a565b5060408201518160020160006101000a81548160ff02191690831515021790555060608201518160020160016101000a81548160ff0219169083151502179055506080820151816003015560a08201518160040155905050600f8190806001815401808255809150506001900390600052602060002001600090919091909150557fe28da1d80dec4ece82645bd52ae6a4118887a7cb56436b4024affa3b5d4463c98282604051610d39929190611598565b60405180910390a18092505050919050565b60015481565b60008282604051602001610d66929190611aeb565b6040516020818303038152906040528051906020012060001c905092915050565b60055481565b3373ffffffffffffffffffffffffffffffffffffffff16600c60009054906101000a900473ffffffffffffffffffffffffffffffffffffffff1673ffffffffffffffffffffffffffffffffffffffff1614610de757600080fd5b600a60009054906101000a900473ffffffffffffffffffffffffffffffffffffffff1673ffffffffffffffffffffffffffffffffffffffff166323b872dd33600d60009054906101000a900473ffffffffffffffffffffffffffffffffffffffff16846040518463ffffffff1660e01b8152600401610e68939291906116fa565b6020604051808303816000875af1158015610e87573d6000803e3d6000fd5b505050506040513d601f19601f82011682018060405250810190610eab919061175d565b508060106000808152602001908152602001600020600401819055507ffd694cca99b717c91c441f9b6a84b6006960da3e67b66583b2374e4cfba41f8d600036604051610ef99291906117c8565b60405180910390a150565b3373ffffffffffffffffffffffffffffffffffffffff16600c60009054906101000a900473ffffffffffffffffffffffffffffffffffffffff1673ffffffffffffffffffffffffffffffffffffffff1614610f5e57600080fd5b80600b60006101000a81548173ffffffffffffffffffffffffffffffffffffffff021916908373ffffffffffffffffffffffffffffffffffffffff1602179055507ffd694cca99b717c91c441f9b6a84b6006960da3e67b66583b2374e4cfba41f8d600036604051610fd19291906117c8565b60405180910390a150565b60095481565b3373ffffffffffffffffffffffffffffffffffffffff16600c60009054906101000a900473ffffffffffffffffffffffffffffffffffffffff1673ffffffffffffffffffffffffffffffffffffffff161461103c57600080fd5b8060098190555050565b6000819050919050565b61105981611046565b82525050565b60006020820190506110746000830184611050565b92915050565b6000604051905090565b600080fd5b600080fd5b61109781611046565b81146110a257600080fd5b50565b6000813590506110b48161108e565b92915050565b6000602082840312156110d0576110cf611084565b5b60006110de848285016110a5565b91505092915050565b600073ffffffffffffffffffffffffffffffffffffffff82169050919050565b6000611112826110e7565b9050919050565b61112281611107565b82525050565b600081519050919050565b600082825260208201905092915050565b60005b83811015611162578082015181840152602081019050611147565b60008484015250505050565b6000601f19601f8301169050919050565b600061118a82611128565b6111948185611133565b93506111a4818560208601611144565b6111ad8161116e565b840191505092915050565b60008115159050919050565b6111cd816111b8565b82525050565b600060c0820190506111e86000830189611119565b81810360208301526111fa818861117f565b905061120960408301876111c4565b61121660608301866111c4565b6112236080830185611050565b61123060a0830184611050565b979650505050505050565b61124481611107565b811461124f57600080fd5b50565b6000813590506112618161123b565b92915050565b60006020828403121561127d5761127c611084565b5b600061128b84828501611252565b91505092915050565b60006020820190506112a96000830184611119565b92915050565b6000806000606084860312156112c8576112c7611084565b5b60006112d6868287016110a5565b93505060206112e7868287016110a5565b92505060406112f8868287016110a5565b9150509250925092565b600080fd5b600080fd5b7f4e487b7100000000000000000000000000000000000000000000000000000000600052604160045260246000fd5b6113448261116e565b810181811067ffffffffffffffff821117156113635761136261130c565b5b80604052505050565b600061137661107a565b9050611382828261133b565b919050565b600067ffffffffffffffff8211156113a2576113a161130c565b5b6113ab8261116e565b9050602081019050919050565b82818337600083830152505050565b60006113da6113d584611387565b61136c565b9050828152602081018484840111156113f6576113f5611307565b5b6114018482856113b8565b509392505050565b600082601f83011261141e5761141d611302565b5b813561142e8482602086016113c7565b91505092915050565b60006020828403121561144d5761144c611084565b5b600082013567ffffffffffffffff81111561146b5761146a611089565b5b61147784828501611409565b91505092915050565b6000819050919050565b61149381611480565b811461149e57600080fd5b50565b6000813590506114b08161148a565b92915050565b600080604083850312156114cd576114cc611084565b5b60006114db85828601611252565b92505060206114ec858286016114a1565b9150509250929050565b7f4e487b7100000000000000000000000000000000000000000000000000000000600052602260045260246000fd5b6000600282049050600182168061153d57607f821691505b6020821081036115505761154f6114f6565b5b50919050565b6000815190506115658161108e565b92915050565b60006020828403121561158157611580611084565b5b600061158f84828501611556565b91505092915050565b60006040820190506115ad6000830185611119565b6115ba6020830184611050565b9392505050565b7f4e487b7100000000000000000000000000000000000000000000000000000000600052601160045260246000fd5b60006115fb82611046565b915061160683611046565b925082820261161481611046565b9150828204841483151761162b5761162a6115c1565b5b5092915050565b7f4e487b7100000000000000000000000000000000000000000000000000000000600052601260045260246000fd5b600061166c82611046565b915061167783611046565b92508261168757611686611632565b5b828204905092915050565b600061169d82611046565b91506116a883611046565b92508282019050808211156116c0576116bf6115c1565b5b92915050565b60006116d182611046565b91506116dc83611046565b92508282039050818111156116f4576116f36115c1565b5b92915050565b600060608201905061170f6000830186611119565b61171c6020830185611119565b6117296040830184611050565b949350505050565b61173a816111b8565b811461174557600080fd5b50565b60008151905061175781611731565b92915050565b60006020828403121561177357611772611084565b5b600061178184828501611748565b91505092915050565b600082825260208201905092915050565b60006117a7838561178a565b93506117b48385846113b8565b6117bd8361116e565b840190509392505050565b600060208201905081810360008301526117e381848661179b565b90509392505050565b6000819050919050565b6000819050919050565b600061181b611816611811846117ec565b6117f6565b611046565b9050919050565b61182b81611800565b82525050565b60006060820190506118466000830186611119565b6118536020830185611119565b6118606040830184611822565b949350505050565b60008190508160005260206000209050919050565b60006020601f8301049050919050565b600082821b905092915050565b6000600883026118ca7fffffffffffffffffffffffffffffffffffffffffffffffffffffffffffffffff8261188d565b6118d4868361188d565b95508019841693508086168417925050509392505050565b60006119076119026118fd84611046565b6117f6565b611046565b9050919050565b6000819050919050565b611921836118ec565b61193561192d8261190e565b84845461189a565b825550505050565b600090565b61194a61193d565b611955818484611918565b505050565b5b818110156119795761196e600082611942565b60018101905061195b565b5050565b601f8211156119be5761198f81611868565b6119988461187d565b810160208510156119a7578190505b6119bb6119b38561187d565b83018261195a565b50505b505050565b600082821c905092915050565b60006119e1600019846008026119c3565b1980831691505092915050565b60006119fa83836119d0565b9150826002028217905092915050565b611a1382611128565b67ffffffffffffffff811115611a2c57611a2b61130c565b5b611a368254611525565b611a4182828561197d565b600060209050601f831160018114611a745760008415611a62578287015190505b611a6c85826119ee565b865550611ad4565b601f198416611a8286611868565b60005b82811015611aaa57848901518255600182019150602085019450602081019050611a85565b86831015611ac75784890151611ac3601f8916826119d0565b8355505b6001600288020188555050505b505050505050565b611ae581611480565b82525050565b6000604082019050611b006000830185611119565b611b0d6020830184611adc565b939250505056fea264697066735822122033ed1281ba82282330cd68a2fa586fc333020493dea66fd90ff6978c9c2957dd64736f6c63430008120033",
  "linkReferences": {},
  "deployedLinkReferences": {}
}